:060000008831462D0000CE
:0800080083018031200077081C
:10001000A0007808A1007908A2007A08A300850151
:1000200091308400801D162891191F282008F700A0
:100030002108F8002208F9002308FA00090080319D
:1000400021282400941A2728F3011419F3177308A0
:10005000F30AB000B008031D34281513141C2E2811
:10006000110815167014F2013008803C0319F101D3
:1000700030087F3C031858287108283C031C572877
:10008000333071078400203085000318850A00088A
:10009000B2003208B3003308910015162000911108
:1000A000240014185128F801161FF80AF10A6D28C7
:1000B000B00803196D287208283C031C6D280A300B
:1000C00072078400203085000318850A1513141C5C
:1000D0006728110815168000F20A2000911180315E
:1000E000162824009D132000921123006B08240081
:1000F000990002309D1B83282000921D7D2800302E
:1001000024001E1B0130F80020000800210091157A
:10011000C0308B040E148E14240017109710971102
:10012000A0309200363095001614961721000E1656
:100130008E1624001F109F109F1109309A0028303E
:100140009D009C131C1301302300CC0024001E14BE
:100150001E18A828031023004C0DD038CD00EB004A
:10016000200071201C302300EB00200071202400AF
:100170001E151E19B9289030200097004B309800AA
:1001800021008C1022008C102300CA014A08283C50
:10019000031CD4280A304A07840020308500031845
:1001A000850A8001CA0AC628883120002B2E230028
:1001B000CC01CF014F084A07840000304B3D850039
:1001C000800803191E294F084A07F80000304B3DEC
:1001D000FA007808D5007A08D6004F084A0784004C
:1001E00000304B3D85000008D700603C0318FF2815
:1001F00057087A3C031CFF285708DF3900295708A5
:10020000D7005608850055088400570880004F081D
:100210004A07840000304B3D850000082C3C031D3C
:100220001C29CC0A4C0B16294F08CD004C08023C67
:10023000031D1C294F08CE00CF0ADA284C08003ACB
:10024000200003192A29013A03195429033A0319F2
:10025000B429462A2300D0015008073C031C4B292F
:100260005C305007F8002030FA000318FA0A7808CA
:10027000D5007A08D60050084A07840000304B3D6C
:1002800085000008D70056088500550884005708E7
:100290008000D00A2C295C30500784002030850073
:1002A0000318850A80014C2A2300D10151084A070E
:1002B000840000304B3D850080080319A9294D08B2
:1002C000510203187C295C305107F8002030FA00F5
:1002D0000318FA0A7808D5007A08D60051084A07A8
:1002E000840000304B3D85000008D700560885008B
:1002F00055088400570880004D085102031D8829C5
:100300005C3051078400203085000318850A800185
:1003100051084D020318A72901304D0751026A3ECA
:10032000F8002030FA000318FA0A7808D5007A0895
:10033000D60051084A07840000304B3D8500000874
:10034000D700560885005508840057088000D10A58
:10035000562901304D0751026A3E84002030850045
:100360000318850A80014C2A2300D20152084A074B
:10037000840000304B3D8500800803193A2A4D085F
:1003800052020318DC295C305207F8002030FA00D2
:100390000318FA0A7808D5007A08D60052084A07E6
:1003A000840000304B3D85000008D70056088500CA
:1003B00055088400570880004D085202031DE829A3
:1003C0005C3052078400203085000318850A8001C4
:1003D00052084D0203180B2A4E08520203180B2A2A
:1003E00001304D075202643EF8002030FA00031835
:1003F000FA0A7808D5007A08D60052084A0784001D
:1004000000304B3D85000008D70056088500550890
:100410008400570880004E085202031D192A01303B
:100420004D075202643E8400203085000318850A7F
:10043000800152084E020318382A01304E0752023A
:100440006A3EF8002030FA000318FA0A7808D5004E
:100450007A08D60052084A07840000304B3D8500D8
:100460000008D7005608850055088400570880000A
:10047000D20AB62901304E0752026A3E840020306B
:1004800085000318850A80014C2A20000230D30021
:100490000030F8004F2A23000130F8002000883196
:1004A0008F2E23005108FA00500884007A08850036
:1004B0000008D4005308FA00520884007A08850026
:1004C00000085402031D7A2A5108FA0050088400DB
:1004D0007A0885008008031D702A0030F800902AF1
:1004E0005108FA005008D00A0319D10AD20A031998
:1004F000D30A522A5108FA00500884005108850096
:100500000008D4005308FA005208840053088500FC
:100510000008540203188E2AFF308F2A0130F80099
:10052000200008002300CC014C08103C031CBE2A0C
:100530004C0DF700F70DF70DF830F7057708873EFB
:10054000F8002030FA000318FA0A7808CE007A087A
:10055000CF004B08D1004A08D0004F08D3004E0806
:10056000D20020005122F808031DBB2A23004C08AA
:10057000F800C02A20002300CC0A942A0030F8009A
:10058000883120009D2E24001D139E159E19C62A19
:1005900077189E12771C9E161E161E1ACD2A190851
:1005A000F80020000800230068080319682B2400C5
:1005B000A00023006C080319682B2400A00703186F
:1005C000EC2A7F30A0020318E72A2300682B031DC2
:1005D000EB2A2300682BF22A8130A007031CF22AA1
:1005E0002300682B2008F700F801F901FA01230025
:1005F00069082400A400A41723006A082400A300AB
:1006000023006B082400A2001830A000A101221CC6
:100610002C2B23006F08FA07031C172BF90A031D64
:10062000172BF80A031D172B2400A11723006E08AF
:10063000F907031C212BF80A031D212B2400A11705
:1006400023006D08EA00EA176A08F807031C2B2B41
:100650002400A11723002400A10DF80CF90CFA0CBA
:10066000A40CA30CA20C0310A00B062B0130F7075F
:10067000031C3C2B2300682BF81B462BA40DFA0D02
:10068000F90DF80DF70B462B2300682BA41F592BEF
:10069000FA0A031D592BF90A031D592BF80A031DE9
:1006A000592BF80CF90CFA0CF70A031D592B2300EF
:1006B000682B230069082400A10023006D08240092
:1006C000A106A11F652BF8176D2BF8136D2B2300C6
:1006D000F701F801F901FA012400200008002300C5
:1006E0005808E4008030E90024001E141E18762B00
:1006F00003102300640DD0380138EA00EB0020001D
:1007000071200130F700C32278082300E700013090
:10071000F7002000C32278082300E6000130F7002C
:100720002000C32278082300E5000130F7002000F4
:10073000C32278082300E900E91FD12B0130F7001C
:100740002000C32278082300E900E91B9E2BF70153
:100750002000C32278082300E90024001E151E197A
:10076000AF2B1E141E18B22B03102300640DD038BB
:100770000138EA00EB00200071200130F700C322AD
:1007800078082300E7000130F7002000C322780832
:100790002300E6000130F7002000C3227808230080
:1007A000E500F7012000C32278082300E9002400B7
:1007B0001E151E19D92B2300E71CE12BFF30E80082
:1007C000E22BE8016508F7006608F8006708F90001
:1007D0006808FA007A08DC007908DB007808DA009B
:1007E0007708D9005C08E7005B08E6005A08E500D6
:1007F0005908E400B630F700FA01F901F801681071
:10080000E71F102C6814E409E509E609E709E40A82
:10081000031D102CE50A031D102CE60A0319E70A34
:100820006408650466046704031D182CF701272C6F
:100830000310F81B242CE40DE50DE60DE70DFA0D71
:10084000F90DF80DF70B182CF8136818F8177A083B
:10085000E7007908E6007808E5007708E400670813
:10086000EB006608EA006508E9006408E8006F30FC
:10087000EF001230EE000330ED006F30EC0020008E
:10088000D3227A082300E0007908DF007808DE0030
:100890007708DD005D08F7005E08F8005F08F900E2
:1008A0006008FA002000080083185A2C21308500C7
:1008B0003B308400F701F801F901FA012300EB0154
:1008C000EC01ED01EE016708660465046404031998
:1008D000992C2030EF000310E00DE10DE20DE30D47
:1008E000EB0DEC0DED0DEE0D67086E02031D822C75
:1008F00066086D02031D822C65086C02031D822CA4
:1009000064086B02031C932C6408EB026508031C4B
:10091000650FEC026608031C660FED026708031CF6
:10092000670FEE020314F70DF80DF90DFA0DEF0B3A
:100930006B2C6B0880006C08813F6D08823F6E084D
:10094000833F2000080023004408850043088400FA
:1009500060081A008001C30A0319C40A20000800B5
:1009600004082300D8005408DA000319D22C5308D5
:10097000EB005208EA005108E9005008E800EF01D6
:10098000EE012030ED008230EC002000D3227A0806
:100990002300D3007908D2007808D1007708D0006E
:1009A000DA0BB72C5308E3005208E2005108E100CB
:1009B0005008E0006008B63CE000FA016108E4007D
:1009C000E1170310E10CE20CE30CFA0CF90CF80C43
:1009D000F70CE00BE12CE41FF82CF709F809F909F2
:1009E000FA09F70A0319F80A0319F90A0319FA0AA6
:1009F0007A08D3007908D2007808D1007708D000AF
:100A0000D31F0F2DD803D816D009D109D209D30985
:100A1000D00A0319D10A0319D20A0319D30A3B30A9
:100A2000DF009A30DE00CA30DD00DC010A30DA0077
:100A300054080319D80A831421308500203084001B
:100A40005308E3005208E2005108E1005008E000BA
:100A50005F08E7005E08E6005D08E5005C08E4006A
:100A6000200054247808F708031D4D2D2300540A54
:100A70005A02031D3D2D20004D2D58080319502DFD
:100A80000F395A020319462D0318882DD81B882DBB
:100A9000581B502D2030822D200020302300D805F7
:100AA000D81E602DD8125408031DD8037708D8002B
:100AB0002D30E0002000A32423005808F700D801BF
:100AC00054085A02031D702D7708D8002E30E0001C
:100AD0002000A32423005808F7002030D805003058
:100AE0003030D81E822DD8125408031DD803770841
:100AF000D8002D30E0002000A32423005808F70080
:100B0000D8013030F7077708E0002000A324230045
:100B100083105F08E3005E08E2005D08E1005C0806
:100B2000E000E701E601E5010A30E400200054247A
:100B30007A082300DF007908DE007808DD007708F6
:100B4000DC00DA0B1B2D200008002300CD01CE01B4
:100B5000CF014F084B07840000304C3D85008008D2
:100B60000319662ECF08031DDC2D4B0884004C08AA
:100B7000850000310008D00050082F3C0318C42D18
:100B80005008393C0318CD2D4B0884004C088500D3
:100B9000003100082D3C031DD82D4B0884004C0863
:100BA0008500003100082D3C0319CE0A642EDB2D90
:100BB0000030F800682E642E4F084B078400003088
:100BC0004C3D85000008D00050082F3C0318EC2D48
:100BD0005008393C0318EE2D0030EF2D0130013C58
:100BE0000319062E4F084B07840000304C3D85004A
:100BF00000082E3C0319062E4F084B0784000030D6
:100C00004C3D850000082D3C031D612E4F084B070D
:100C1000840000304C3D850000082E3C031D182E3A
:100C2000CD0A4D08013C0318182E0030F800682E3C
:100C30004F084B07840000304C3D850000082D3CD8
:100C4000031D252E0030F800682E4C08D2004B08FA
:100C5000D1005208D4005108D3005408FA005308B8
:100C600084007A088500800803193A2ED30A0319F4
:100C7000D40A2D2E51085302F7005208543BFA00B3
:100C80007708F800013078024B07840000304C3DB3
:100C9000850000082E3C031D502E0030F800682E01
:100CA0004F084B07840000304C3D85000008D00001
:100CB00050082F3C0318602E5008393C0318642E4E
:100CC000642E0030F800682ECF0AA92D0130F800FC
:100CD000200008008E30F70023006208F800610849
:100CE000F900FA01F808031D7F2E7908F800F901D0
:100CF0000830F702F808031D7F2EF701872E031036
:100D0000F81B862EF90DF80DF7037F2EF81320003F
:100D100008002300610803194F2FEE00650803192E
:100D20004F2FEE02031C992E7F30EE0703184F2F32
:100D30009F2E8130EE02031C4F2F03194F2F6E0898
:100D4000F700F801F901FA01ED016208EC00EC1777
:100D50006308EB006408EA001930EE006808EA0254
:100D60000318C22E0130EB020318C22EEC02031846
:100D7000C22EED020318C22EED0AEC0AEB0A680837
:100D8000EA07F42E6708EB020318DD2E0130EC02AF
:100D90000318DD2EED020318DD2EED0AEC0A6708BC
:100DA000EB076808EA07031CF42EEB0A031DF42E78
:100DB000EC0A031DF42EED0AF42E66088038EC02CE
:100DC0000318F32E0130ED020318F32EED0A660826
:100DD0008038EC076708EB07031CD12EEC0A031DD3
:100DE000D12EED0AD12E7A14EE0BF72E022F03101E
:100DF000EA0DEB0DEC0DED0D0310FA0DF90DF80DEC
:100E0000EF0DAE2E6F1C0A2F0310F80CF90CFA0C24
:100E1000EF0C0D2FF70303194F2FEF1B362F031085
:100E2000EA0DEB0DEC0DED0D6808EA020318222F18
:100E30000130EB020318222FEC020318222FED02DF
:100E4000031C452F6708EB0203182D2F0130EC021D
:100E500003182D2FED02031C452F66088038EC0285
:100E60000318362F0130ED02031C452FFA0A031D2B
:100E7000452FF90A031D452FF80A031D452FF70AD0
:100E800003194F2FF80CF90CFA0C6208EE006608F3
:100E9000EE06EE1F4D2FF817532FF813532FF701BF
:100EA000F801F901FA0120000800213085001B300B
:100EB0008400000803196A2F0530F800F701F70BCA
:100EC0005F2FF80B5E2F2E30F700F70B652F682F82
:060ED000800B5C2F0800FE
:101000008030831C06282300E60620002400A2016D
:10101000A301230062082400A10023006608240025
:10102000A10623006108031921292400A000F7006C
:1010300023006508031930292400A0020319B828E9
:10104000031823286928230066082400A600A61791
:10105000230067082400A500230068082400A400DA
:10106000A3010310A60CA50CA40CA30CA00B302804
:10107000A11F3D28221449292210201022162130B8
:101080008500343084005F292212A11B5128201CC6
:101090005C28A60CA50CA40CA30CF70A0319442980
:1010A0005C28A61B5F280310A30DA40DA50DA60D9B
:1010B000F7030319442951282217E128221323009A
:1010C00062082400A100A11F6728A6173D29A613C6
:1010D0003D29230065082400A000F70023006108D3
:1010E0002400A002230062082400A600A617230003
:1010F00063082400A500230064082400A400A301C1
:101100000310A60CA50CA40CA30CA00B7F28A11FF8
:101110008C28A2144929A2102010A2162130850083
:10112000383084005F29A212A11BA028201CAB2804
:10113000A60CA50CA40CA30CF70A03194429AB2890
:10114000A61BAE280310A30DA40DA50DA60DF70335
:1011500003194429A028A217E128A2132300660836
:101160002400A100A11FB628A6173D29A6133D29DA
:10117000230066082400A600A617230067082400A1
:10118000A500230068082400A400A11FCB28A613F3
:10119000221549292211A301201021308500343065
:1011A00084005F29A11BF728230062082400A10006
:1011B000201CE128A60CA50CA40CA30CF70A03190B
:1011C0004429A31FF228A40A031DF228A50A031D1F
:1011D000F228A60A031DF228A60CA50CA40CF70AF7
:1011E00003194429221B5E28A21BAD281A2980302E
:1011F000A606A61F01294929230066082400A1008C
:101200001029230062082400A100A608031D10294C
:10121000A508031D1029A408031D1029F7013D2965
:10122000A61B1A290310A30DA40DA50DA60DF70BDF
:1012300010294429A11F1E29A6173D29A6133D29BF
:1012400023006508F70066082400A600230067084D
:101250002400A500230068082400A4003D292300E1
:101260006108F70062082400A60023006308240038
:10127000A500230064082400A4002608F80025081F
:10128000F9002408FA007C29F701F801F901FA01B4
:101290007C29A301A409A509A609A309A30A031D82
:1012A0005829A40A031D5829A50A031D5829A60A6E
:1012B00022183C28A2188B282219CA28FC280008CA
:1012C000A407031C6929A50A031D6929A60A031995
:1012D00020141100A507031C7029A60A0319201465
:1012E0001100801B7429803AA60703182014221AC3
:1012F0004428A21A9328D228200008002300D201F3
:10130000D101D0017F30CF00D601D501D401D30166
:101310005714D7105711D9014B084C04031D9529B8
:10132000F701F801F901FA01B62A5908D90A4B0761
:10133000840000304C3D85000008D800D80803190F
:10134000762A571CB5295808203C0319B52957108F
:1013500058082B3C031DAF29D7106C2AB529580813
:101360002D3C031DB529D7146C2A5718BF295808DE
:101370002E3C031DBF295719BF2957156C2A571832
:101380006A2A58082F3C03186A2A5808393C031C5B
:101390006A2A3030D802571D2A2A5208EB00510819
:1013A000EA005008E9004F08E800EF01EE012030A4
:1013B000ED008230EC0080312000D32288317A08A1
:1013C0002300D2007908D1007808D0007708CF0038
:1013D000E2015808E100803120006A2688317A084D
:1013E0002300DF007908DE007808DD007708DC00E4
:1013F0005F08E4005E08E3005D08E2005C08E100CD
:101400005208E8005108E7005008E6004F08E500E0
:101410008031200089268831831023005608E4009B
:101420005508E3005408E2005308E1007A08E80098
:101430007908E7007808E6007708E500200000203A
:101440007A082300D6007908D5007808D4007708F8
:10145000D300692AEB01EA012030E9008230E8007C
:101460005608EF005508EE005408ED005308EC0054
:1014700080312000D32288317A082300DF007908E8
:10148000DE007808DD007708DC00E2015808E100A2
:10149000803120006A268831831023005F08E40031
:1014A0005E08E3005D08E2005C08E1007A08E800FD
:1014B0007908E7007808E6007708E50020000020BA
:1014C0007A082300D6007908D5007808D400770878
:1014D000D3006C2A571C762A5908D90A4B07840076
:1014E00000304C3D85000008D8009E29D71C932A67
:1014F000EB01EA018030E9007F30E8005608EF0098
:101500005508EE005408ED005308EC00803120002F
:10151000D32288317A082300D6007908D5007808CC
:10152000D4007708D3004D084E040319AE2AD90819
:101530000319A62AD9034D0884004E0885005908CE
:101540004B07800000304C3D813FAE2A4D0884009F
:101550004E0885004B0880004C08813F5308F70077
:101560005408F8005508F9005608FA002000080051
:1015700023004A08EF3E03182E2D113E2000312D86
:1015800023002E2D23002E2D20302300D1005C308F
:10159000D0002030D3000A30D20080312000512208
:1015A0008831F808031D1F2B2100B4080319DA2A1B
:1015B00020001F2BBA080319DF2A20001F2B01303F
:1015C0002300D800803120006F2388317A0823005F
:1015D000CF007908CE007808CD007708CC004F08FE
:1015E000EB004E08EA004D08E9004C08E800EF0166
:1015F000EE017A30ED008830EC0080312000D322FB
:1016000088317A082300CF007908CE007808CD0011
:101610007708CC002030C4003330C3008930840008
:101620004F08D3004E08D2004D08D1004C08D0001E
:101630000230D40080312000B0248831212B0230C8
:10164000D30023002E2D2100B408031D5E2BBA0801
:1016500003195E2B20302300CC006A30CB00803190
:101660002000A5258831F80803195A2B20302300C3
:10167000CC006A30CB00CE01CD0120007E217A085B
:101680002300C2007908C1007808C0007708BF00B5
:101690002030C4003330C3004F30E00080312000E0
:1016A000A32488314B302300E00080312000A324A4
:1016B00088315C2B0230D300612B210002302000E6
:1016C000D30023002E2D2100B408031DDB2CBA0803
:1016D0000319DB2C20302300CC006A30CB00803192
:1016E0002000A5258831F8080319D72C20302300C5
:1016F000CC006A30CB00CE01CD0120007E217A08DB
:101700002300C2007908C1007808C0007708BF0034
:101710004208CF004108CE004008CD003F08CC0071
:101720000130D800803120006F2388317A082300EF
:10173000DB007908DA007808D9007708D8005B0860
:10174000EB005A08EA005908E9005808E800EF01E0
:10175000EE017A30ED008830EC0080312000D32299
:1017600088317A082300D3007908D2007808D100A4
:101770007708D0006230EB00F830EA008830E900EA
:101780007930E8005308EF005208EE005108ED00F0
:101790005008EC0080312000D32288317A082300E1
:1017A000DB007908DA007808D9007708D800050846
:1017B000DD000408DC0083105B08E4005A08E30045
:1017C0005908E2005808E1005E30E800BA30E7004E
:1017D0005930E6008130E5002000002023005D083C
:1017E00085005C0884007A08D7007908D60078085C
:1017F000D5007708D4008314E401E3016030E200EF
:101800008130E1005708E8005608E7005508E60077
:101810005408E500200000207A082300DB00790846
:10182000DA007808D9007708D8005B08EB005A087E
:10183000EA005908E9005808E8004F08EF004E0890
:10184000EE004D08ED004C08EC0080312000D32262
:1018500088317A082300DB007908DA007808D9009B
:101860007708D8005B08E4005A08E3005908E20052
:101870005808E100E801E7011630E6008730E5008E
:1018800080312000892688317A082300DB0079081E
:10189000DA007808D9007708D8008314E401E3015E
:1018A0006030E2008130E1005708E8005608E700A8
:1018B0005508E6005408E500200000207A082300BF
:1018C000DF007908DE007808DD007708DC005F08BB
:1018D000E4005E08E3005D08E2005C08E100E80166
:1018E000E7014030E6008230E500803120008926A3
:1018F0008831831423005B08E4005A08E300590888
:10190000E2005808E1007A08E8007908E700780862
:10191000E6007708E500200000207A082300DB00BD
:101920007908DA007808D9007708D80083105B08B6
:10193000E4005A08E3005908E2005808E10057089B
:10194000E8005608E7005508E6005408E5002000C6
:1019500000207A082300D7007908D6007808D5003F
:101960007708D4005408F7005508F8005608F90025
:101970005708FA007A08CF007908CE007808CD0021
:101980007708CC002030C4003330C3008930840095
:101990004F08D3004E08D2004D08D1004C08D000AB
:1019A0000230D40080312000B0248831D92C02309C
:1019B000D300DE2C210002302000D30023002E2D86
:1019C00020302300D1005C30D0002030D3000A301A
:1019D000D2008031200051228831F808031D182DD3
:1019E0002100B4080319F62C2000182DBA08031999
:1019F000FB2C2000182D01302000D300AA01AA08DA
:101A0000031D172D023022008C0664302300CB000A
:101A10008031200055278831023022008C06643046
:101A20002300CB008031200055278831FF2C1A2D50
:101A30000230D30023002E2D2100B408031D232DD6
:101A4000BA08031D272D02302000D30021002300F7
:101A50002E2D0230D30023002E2D230088312000AC
:101A6000A52E0A148A100A158207292DC02AC22A17
:101A70002D2D2D2DE02C2D2D2D2D2D2D1C2D2D2DF5
:101A8000C42A2D2D2D2D2D2D232B632B55303C00BD
:101A90008F00AA308F000F1014309D0015309E006B
:101AA0001030A0001130A10018303D00A000193006
:101AB000A1001A30A4001B30A50055303C008F0057
:101AC000AA308F000F1432009E019B019D01063049
:101AD0009F006030990070102300C201C10148309E
:101AE000C0008330BF000330F300C401C3018C0188
:101AF0008E01220092019101940193010E2E023475
:101B000000342434003400342B344034AC340034FA
:101B1000033480344534523452340534C0340034F4
:101B20000434803442344134553444340434C034B1
:101B3000003403348034433441344C340534C034ED
:101B400000340134803445341334013420345834A3
:101B500050344F3452345434003400344634413419
:101B6000433454344F3452345934003446344934B5
:101B70004E3444340434C0340034013480344934A5
:101B80000734C034003403348034493432344334AD
:101B90000534C03400340934803449344D34503471
:101BA0004F3452345434003400344C340734C0348D
:101BB00000340934803450344C344F3443344B3483
:101BC00000340034003452340734C0340034093453
:101BD000803453344C34453445345034003400346C
:101BE0000034533410340134A0344C344F34503466
:101BF00045340034003400345334543441345434C4
:101C0000553453340034003454340734C034003471
:101C10000334803452345434003400340D308500A1
:101C20007F30840085171200F700003A0319282E30
:101C30001200F800F81B202E0F39870012008600D2
:101C4000781B1200781F12001E00F70B222E132E95
:101C50008031200086288831230045102000AA0802
:101C60000319B62E701C512E171A960195011508EE
:101C7000F700171A1608FA00171EFA017708230052
:101C8000CA007A08CB00CB08031D4D2E4A083B3C06
:101C9000031C4D2E2000372E230045142000D201B6
:101CA00070102300451CB52E4510C6014608283C7F
:101CB000031C882E3330460784002030850003182B
:101CC000850A80014608073C031C6E2E5C304607DF
:101CD0008400203085000318850A80014608053CF1
:101CE000031C7A2E643046078400203085000318D8
:101CF000850A800146081C3C031C862E6A30460774
:101D00008400203085000318850A8001C60A562EFB
:101D10002030CB000A30CA0080312000D72888311B
:101D20002300C5107818C514C51CA62E2030CB0082
:101D30005C30CA0080312000922A88317808230064
:101D4000C7004708CA002000B82A2300C801480875
:101D5000283C031CB52E0A3048078400203085003B
:101D60000318850A8001C80AA72E20002F2E6300C1
:020000040001F9
:08000E00EC3FF13FFC1FFC3F39
:00000001FF
;PIC16F18326
;CRC=01A2  CREATED="17-jun-19 14:41"
